{
  "contractName": "Loan",
  "abi": [
    {
      "inputs": [
        {
          "internalType": "uint256",
          "name": "_amount",
          "type": "uint256"
        },
        {
          "internalType": "uint256",
          "name": "_interest",
          "type": "uint256"
        },
        {
          "internalType": "uint256",
          "name": "_duration",
          "type": "uint256"
        },
        {
          "internalType": "address payable",
          "name": "_borrower",
          "type": "address"
        },
        {
          "internalType": "address payable",
          "name": "_lender",
          "type": "address"
        }
      ],
      "stateMutability": "nonpayable",
      "type": "constructor"
    },
    {
      "inputs": [],
      "name": "amount",
      "outputs": [
        {
          "internalType": "uint256",
          "name": "",
          "type": "uint256"
        }
      ],
      "stateMutability": "view",
      "type": "function",
      "constant": true
    },
    {
      "inputs": [],
      "name": "borrower",
      "outputs": [
        {
          "internalType": "address payable",
          "name": "",
          "type": "address"
        }
      ],
      "stateMutability": "view",
      "type": "function",
      "constant": true
    },
    {
      "inputs": [],
      "name": "end",
      "outputs": [
        {
          "internalType": "uint256",
          "name": "",
          "type": "uint256"
        }
      ],
      "stateMutability": "view",
      "type": "function",
      "constant": true
    },
    {
      "inputs": [],
      "name": "interest",
      "outputs": [
        {
          "internalType": "uint256",
          "name": "",
          "type": "uint256"
        }
      ],
      "stateMutability": "view",
      "type": "function",
      "constant": true
    },
    {
      "inputs": [],
      "name": "lender",
      "outputs": [
        {
          "internalType": "address payable",
          "name": "",
          "type": "address"
        }
      ],
      "stateMutability": "view",
      "type": "function",
      "constant": true
    },
    {
      "inputs": [],
      "name": "state",
      "outputs": [
        {
          "internalType": "enum Loan.State",
          "name": "",
          "type": "uint8"
        }
      ],
      "stateMutability": "view",
      "type": "function",
      "constant": true
    },
    {
      "inputs": [],
      "name": "fundLoan",
      "outputs": [],
      "stateMutability": "payable",
      "type": "function",
      "payable": true
    },
    {
      "inputs": [],
      "name": "repay",
      "outputs": [],
      "stateMutability": "payable",
      "type": "function",
      "payable": true
    }
  ],
  "bytecode": "0x608060405260008060006101000a81548160ff021916908360028111156200002c576200002b62000113565b5b02179055503480156200003e57600080fd5b506040516200112c3803806200112c8339818101604052810190620000649190620001e7565b846001819055508360028190555082426200008091906200029e565b60038190555081600460006101000a81548173ffffffffffffffffffffffffffffffffffffffff021916908373ffffffffffffffffffffffffffffffffffffffff16021790555080600560006101000a81548173ffffffffffffffffffffffffffffffffffffffff021916908373ffffffffffffffffffffffffffffffffffffffff1602179055505050505050620002fb565b7f4e487b7100000000000000000000000000000000000000000000000000000000600052602160045260246000fd5b600080fd5b6000819050919050565b6200015c8162000147565b81146200016857600080fd5b50565b6000815190506200017c8162000151565b92915050565b600073ffffffffffffffffffffffffffffffffffffffff82169050919050565b6000620001af8262000182565b9050919050565b620001c181620001a2565b8114620001cd57600080fd5b50565b600081519050620001e181620001b6565b92915050565b600080600080600060a0868803121562000206576200020562000142565b5b600062000216888289016200016b565b955050602062000229888289016200016b565b94505060406200023c888289016200016b565b93505060606200024f88828901620001d0565b92505060806200026288828901620001d0565b9150509295509295909350565b7f4e487b7100000000000000000000000000000000000000000000000000000000600052601160045260246000fd5b6000620002ab8262000147565b9150620002b88362000147565b9250827fffffffffffffffffffffffffffffffffffffffffffffffffffffffffffffffff03821115620002f057620002ef6200026f565b5b828201905092915050565b610e21806200030b6000396000f3fe60806040526004361061007b5760003560e01c8063bcead63e1161004e578063bcead63e146100ea578063c19d93fb14610115578063c392f76614610140578063efbe1c1c1461016b5761007b565b8063402d8883146100805780637df1f1b91461008a5780638db57994146100b5578063aa8c217c146100bf575b600080fd5b610088610196565b005b34801561009657600080fd5b5061009f6102ec565b6040516100ac919061079e565b60405180910390f35b6100bd610312565b005b3480156100cb57600080fd5b506100d461045d565b6040516100e191906107d2565b60405180910390f35b3480156100f657600080fd5b506100ff610463565b60405161010c919061079e565b60405180910390f35b34801561012157600080fd5b5061012a610489565b6040516101379190610864565b60405180910390f35b34801561014c57600080fd5b5061015561049a565b60405161016291906107d2565b60405180910390f35b34801561017757600080fd5b506101806104a0565b60405161018d91906107d2565b60405180910390f35b6002546001546101a691906108ae565b34146101e7576040517f08c379a00000000000000000000000000000000000000000000000000000000081526004016101de90610987565b60405180910390fd5b600460009054906101000a900473ffffffffffffffffffffffffffffffffffffffff1673ffffffffffffffffffffffffffffffffffffffff163373ffffffffffffffffffffffffffffffffffffffff1614610277576040517f08c379a000000000000000000000000000000000000000000000000000000000815260040161026e906109f3565b60405180910390fd5b61028160026104a6565b600460009054906101000a900473ffffffffffffffffffffffffffffffffffffffff1673ffffffffffffffffffffffffffffffffffffffff166108fc349081150290604051600060405180830381858888f193505050501580156102e9573d6000803e3d6000fd5b50565b600460009054906101000a900473ffffffffffffffffffffffffffffffffffffffff1681565b6001543414610356576040517f08c379a000000000000000000000000000000000000000000000000000000000815260040161034d90610a85565b60405180910390fd5b600560009054906101000a900473ffffffffffffffffffffffffffffffffffffffff1673ffffffffffffffffffffffffffffffffffffffff163373ffffffffffffffffffffffffffffffffffffffff16146103e6576040517f08c379a00000000000000000000000000000000000000000000000000000000081526004016103dd90610af1565b60405180910390fd5b6103f060016104a6565b600460009054906101000a900473ffffffffffffffffffffffffffffffffffffffff1673ffffffffffffffffffffffffffffffffffffffff166108fc6001549081150290604051600060405180830381858888f1935050505015801561045a573d6000803e3d6000fd5b50565b60015481565b600560009054906101000a900473ffffffffffffffffffffffffffffffffffffffff1681565b60008054906101000a900460ff1681565b60025481565b60035481565b600060028111156104ba576104b96107ed565b5b8160028111156104cd576104cc6107ed565b5b0361050d576040517f08c379a000000000000000000000000000000000000000000000000000000000815260040161050490610b5d565b60405180910390fd5b60008054906101000a900460ff16600281111561052d5761052c6107ed565b5b8160028111156105405761053f6107ed565b5b03610580576040517f08c379a000000000000000000000000000000000000000000000000000000000815260040161057790610bef565b60405180910390fd5b60016002811115610594576105936107ed565b5b8160028111156105a7576105a66107ed565b5b0361064b57600060028111156105c0576105bf6107ed565b5b60008054906101000a900460ff1660028111156105e0576105df6107ed565b5b14610620576040517f08c379a000000000000000000000000000000000000000000000000000000000815260040161061790610ca7565b60405180910390fd5b60016000806101000a81548160ff02191690836002811115610645576106446107ed565b5b02179055505b60028081111561065e5761065d6107ed565b5b816002811115610671576106706107ed565b5b0361075a576001600281111561068a576106896107ed565b5b60008054906101000a900460ff1660028111156106aa576106a96107ed565b5b146106ea576040517f08c379a00000000000000000000000000000000000000000000000000000000081526004016106e190610d5f565b60405180910390fd5b60035442101561072f576040517f08c379a000000000000000000000000000000000000000000000000000000000815260040161072690610dcb565b60405180910390fd5b60026000806101000a81548160ff02191690836002811115610754576107536107ed565b5b02179055505b50565b600073ffffffffffffffffffffffffffffffffffffffff82169050919050565b60006107888261075d565b9050919050565b6107988161077d565b82525050565b60006020820190506107b3600083018461078f565b92915050565b6000819050919050565b6107cc816107b9565b82525050565b60006020820190506107e760008301846107c3565b92915050565b7f4e487b7100000000000000000000000000000000000000000000000000000000600052602160045260246000fd5b6003811061082d5761082c6107ed565b5b50565b600081905061083e8261081c565b919050565b600061084e82610830565b9050919050565b61085e81610843565b82525050565b60006020820190506108796000830184610855565b92915050565b7f4e487b7100000000000000000000000000000000000000000000000000000000600052601160045260246000fd5b60006108b9826107b9565b91506108c4836107b9565b9250827fffffffffffffffffffffffffffffffffffffffffffffffffffffffffffffffff038211156108f9576108f861087f565b5b828201905092915050565b600082825260208201905092915050565b7f596f752073686f756c642072657475726e2074686520696e746572657374206160008201527f6e642074686520616d6f756e7400000000000000000000000000000000000000602082015250565b6000610971602d83610904565b915061097c82610915565b604082019050919050565b600060208201905081810360008301526109a081610964565b9050919050565b7f796f7520617265206e6f742074686520626f72726f7765720000000000000000600082015250565b60006109dd601883610904565b91506109e8826109a7565b602082019050919050565b60006020820190508181036000830152610a0c816109d0565b9050919050565b7f596f752073686f756c64206c656e642074686520616d6f756e742c206465666960008201527f6e656420696e2074686520636f6e7374727563746f7200000000000000000000602082015250565b6000610a6f603683610904565b9150610a7a82610a13565b604082019050919050565b60006020820190508181036000830152610a9e81610a62565b9050919050565b7f43616c6c61626c65206f6e6c7920627920746865206c656e6465720000000000600082015250565b6000610adb601b83610904565b9150610ae682610aa5565b602082019050919050565b60006020820190508181036000830152610b0a81610ace565b9050919050565b7f43616e6e6f7420676f206261636b20746f2070656e64696e6720737461746500600082015250565b6000610b47601f83610904565b9150610b5282610b11565b602082019050919050565b60006020820190508181036000830152610b7681610b3a565b9050919050565b7f63616e6e6f74207472616e736974696f6e20746f2074686520696e697469616c60008201527f2073746174650000000000000000000000000000000000000000000000000000602082015250565b6000610bd9602683610904565b9150610be482610b7d565b604082019050919050565b60006020820190508181036000830152610c0881610bcc565b9050919050565b7f43616e6e6f74207472616e73696f74696f6e20746f206163746976652073746160008201527f7465206966207468652063757272656e74207374617465206973204e4f54205060208201527f454e44494e472000000000000000000000000000000000000000000000000000604082015250565b6000610c91604783610904565b9150610c9c82610c0f565b606082019050919050565b60006020820190508181036000830152610cc081610c84565b9050919050565b7f43616e6e6f74207472616e73696f74696f6e20746f20636c6f7365642073746160008201527f7465206966207468652063757272656e74207374617465206973204e4f54204160208201527f4354495645200000000000000000000000000000000000000000000000000000604082015250565b6000610d49604683610904565b9150610d5482610cc7565b606082019050919050565b60006020820190508181036000830152610d7881610d3c565b9050919050565b7f4c6f616e20686173206e6f74206d617475726564207965742e20000000000000600082015250565b6000610db5601a83610904565b9150610dc082610d7f565b602082019050919050565b60006020820190508181036000830152610de481610da8565b905091905056fea2646970667358221220dacfa2570cbbefa39cb766edc236b635c9ae166da3410892187bc6dc86d607c364736f6c634300080f0033",
  "immutableReferences": {},
  "source": "pragma solidity 0.8.15;\n\n\n//@ notice all enum values are written in CAPS\n//@ notice enums works best if combined with a function that changes its state. In this particular case, this is the _transitionTo function\ncontract Loan {\nenum State {\n                PENDING,                                //1st stage - investors investing the loan\n                ACTIVE,                                 //2nd stage - loan is used by the borrower\n                CLOSED                                  //3rd stage - loan is repaid\n        }\n\n\nState public state = State.PENDING;               // a variable that storest the current state of the enum\n//@ notice  under the hood, Solidity sees every variable in an enum as an integer. e.g. PENDING is 0, ACTIVE is 1 and so on. aka enum values are convertible to integers and inegers are converted to enum values\n//@ notice   in this regard, I cannot simply access a variable in an enum by ots corresponding integer, because solidity will complain. Aka I cannot access PENDING by typing State.0. Instead I it happens like this:\n\n/*\nfunction foo (uint a){\n        state = State(a)       state now equals State.PENDING\n        //in other words, if I want to acess a variable in an enum the syntax is EnunNAME(int);\n}\n\n*/\n\n//@ notice parameters defining the loan\n\nuint public amount;\nuint public interest;\nuint public end;\naddress payable public borrower;\naddress payable public lender;\n\nconstructor (uint _amount, uint _interest, uint _duration, address payable _borrower, address payable _lender) {\n        amount = _amount;\n        interest = _interest;\n        end = block.timestamp + _duration;\n        borrower=_borrower;\n        lender=_lender;\n\n}\n\nfunction fundLoan () external payable {\n        require( msg.value ==amount, \"You should lend the amount, defined in the constructor\");\n        require( msg.sender == lender, \"Callable only by the lender\");  \n        _transitionTo(State.ACTIVE);                        //placed before the actual transfer, because if this function fails to execute, the funds wont be transferred to the borrower\n        borrower.transfer(amount);                         //transfers the deposited funds to the borrower                                 \n\n}\n\nfunction repay () external payable {\n        require(msg.value==amount + interest, \"You should return the interest and the amount\");\n        require(msg.sender==borrower, \"you are not the borrower\");\n        _transitionTo(State.CLOSED ); \n        borrower.transfer(msg.value); \n}\n\nfunction _transitionTo (State to) private {                                                        // declared with _ because this is the ocnvention to followe when declaring priate functions. this fn will change the state of the enum after each of the other functions in the contract. The parameter represents the value of the State enum to which we want the state changed to \n        require( to != State.PENDING, \"Cannot go back to pending state\");                          // this check is here to make sure that the the state cannot go back to its initial state \n        require (to != state, \"cannot transition to the initial state\" );                          //checks to make sure that state wont change to the current state\n        if ( to == State.ACTIVE) {\n                require (state == State.PENDING, \"Cannot transiotion to active state if the current state is NOT PENDING \");\n                state=State.ACTIVE;\n        }\n                if ( to == State.CLOSED) {\n                require (state == State.ACTIVE, \"Cannot transiotion to closed state if the current state is NOT ACTIVE \");\n                require(block.timestamp>=end, \"Loan has not matured yet. \");\n                state=State.CLOSED;\n        }\n\n\n\n}\n\n}",
  "sourcePath": "/Users/petartodorov/Desktop/coding/solidity/Dapp30/loanmachine/contracts/Loan.sol",
  "compiler": {
    "name": "solc",
    "version": "0.8.15+commit.e14f2714.Emscripten.clang"
  },
  "schemaVersion": "3.4.8",
  "updatedAt": "2022-09-06T21:01:21.923Z",
  "networkType": "ethereum",
  "devdoc": {
    "kind": "dev",
    "methods": {},
    "version": 1
  },
  "userdoc": {
    "kind": "user",
    "methods": {},
    "version": 1
  }
}